:03000000020006F5
:03005F0002000399
:0300030002023ABC
:10006200858280C2A6C2A5D2A7900064120150C2A6
:10007200A7120079D2A72290006412015022758241
:100082003812006275820E120062758201120062DD
:1000920075828012006222858280D2A6C2A5D2A772
:1000A20090000A120150C2A7120079D2A722AD8293
:1000B200AE83AFF0C007C006C005121240AB82ACDF
:1000C20083D005D006D007EB60278D828E838FF018
:1000D200121258FCA3AD82AE838C82C007C006C048
:1000E20005C003120099D003D005D006D0071B80AB
:1000F200D622AF82BF02087582C0120062800675E6
:1001020082801200627F00C3EF9508500D75821441
:10011200C007120062D0070F80ED22AE82AF837C4F
:10012200007D007A007B00C3EA9EEB64808FF0635F
:10013200F08095F050070ABA00ED0B80EA0CBC0083
:10014200010DC3EC94E8ED6480948340D622AE8224
:10015200AF837C007D00C3EC9EED64808FF063F082
:100162008095F050070CBC00ED0D80EA22758201EB
:1001720012006290000212011D22C2959000141218
:10018200011DC2952285820985830A85F00B121210
:100192004085820C85830DC3740E950C7480850D89
:1001A200F063F08095F0400302022AE4F50EF50FA9
:1001B200E50C24FFF8E50D34FFFCC3E50E98E50FCE
:1001C20064808CF063F08095F0503FC000C004E57D
:1001D2000E2509F9E50F350AFAAB0B7401250EFE5F
:1001E200E4350FFFEE2509F8EF350AFCAD0B8882E6
:1001F2008C838DF012125889828A838BF01209FE49
:100202008E0E8F0FD004D00080B0E50C24FFFEE5E7
:100212000D34FFFFEE2509FEEF350AFFAD0B8E828E
:100222008F838DF0E41209FE12016F850982850A1F
:1002320083850BF01200B02212017CE4F510F51157
:10024200FCFD751201F5137A017B00C005C004C0E4
:1002520003C002120080D002D003D004D005C294A1
:10026200C295C296C297752600752700752800753B
:100272002900752A00752B00752C00752D00752E2E
:1002820000752F007530007531007532007533002E
:10029200753400753500C294C295C296C2973091EA
:1002A2000302050190002675F040C005C004C0039A
:1002B200C002121240858236858337D002D003D025
:1002C20004D005C294D295D296D2973091030204FB
:1002D200377401B5120614B5130280237402B512E5
:1002E20006E4B5130280247403B51206E4B51302C2
:1002F20080267404B51206E4B5130280428061ECD4
:100302002510F510ED3511F5118055E510C39CF55A
:1003120010E5119DF51180488C768D778A828B834A
:10032200C005C004120A19858214858315D004D031
:1003320005E5142510F510E5153511F51180218C10
:10034200768D778A828B83C005C004121274AE82C6
:10035200AF83D004D005EE2510F510EF3511F5115D
:100362007582C0C005C004120062D004D005EC4DF5
:1003720070187404B51206E4B513028002800B9063
:1003820012B075F0801200B0807AC010C01174B83B
:10039200C0E07412C0E07480C0E07416C0E0740063
:1003A200C0E07440C0E0120B0CE58124F8F581E452
:1003B200F538F539C3E53894C8E53964809480503E
:1003C2003AD2957E007F00C3EE9464EF64809480FD
:1003D20050070EBE00F10F80EEC2957E007F00C373
:1003E200EE9464EF6480948050070EBE00F10F809B
:1003F200EE0538E4B538BD053980B990001675F0C0
:10040200401200B0C294D295D296D2972092FDE4C7
:10041200F510F511FCFD751201F5137A017B00C090
:1004220005C004C003C00212016FD002D003D00481
:10043200D005752600D294C295D296D29720912DDE
:10044200E5362426F87633E536042426F876008C41
:10045200768D7790000AC003C002120A19E58285E0
:1004620083F0D002D0032403FCE435F0FDD294D211
:1004720095C296D29720912DE5362426F87636E558
:1004820036042426F876008C768D7790000AC00315
:10049200C002120A19E5828583F0D002D003240635
:1004A200FCE435F0FDD294D295D296C29720912DDC
:1004B200E5362426F87639E536042426F876008CCB
:1004C200768D7790000AC003C002120A19E5828570
:1004D20083F0D002D0032409FCE435F0FD9000261D
:1004E20075F040C005C004C003C00212018790002D
:1004F2001412011DD002D003D004D005020298309C
:10050200920302060F90002675F040C005C004C099
:1005120003C00212124085823A85833BD002D00387
:10052200D004D005C294D295D296D29720921412BA
:10053200016FE4F510F511FCFDF512F5137A017B5C
:1005420000F526D294C295D296D29720922DE53A02
:100552002426F87632E53A042426F876008C768D45
:100562007790000AC003C002120A19E5828583F05F
:10057200D002D0032402FCE435F0FDD294D295C21D
:1005820096D29720922DE53A2426F87635E53A045C
:100592002426F876008C768D7790000AC003C0027C
:1005A200120A19E5828583F0D002D0032405FCE407
:1005B20035F0FDD294D295D296C29720922DE53A8B
:1005C2002426F87638E53A042426F876008C768DCF
:1005D2007790000AC003C002120A19E5828583F0EF
:1005E200D002D0032408FCE435F0FD90002675F01B
:1005F20040C005C004C003C002120187900014125B
:10060200011DD002D003D004D0050202983093031A
:1006120002072E90002675F040C005C004C003C03A
:100622000212124085823C85833DD002D003D00461
:10063200D005C294D295D296D297209325E53C2438
:1006420026F87630E53C042426F876008C768D7701
:1006520090000AC003C002120A19AC82AD83D00214
:10066200D003D294C295D296D29720932DE53C2402
:1006720026F87631E53C042426F876008C768D77D0
:1006820090000AC003C002120A19E5828583F0D0E5
:1006920002D0032401FCE435F0FDD294D295C29637
:1006A200D29720932DE53C2426F87634E53C0424A9
:1006B20026F876008C768D7790000AC003C002126D
:1006C2000A19E5828583F0D002D0032404FCE435C4
:1006D200F0FDD294D295D296C29720932DE53C2478
:1006E20026F87637E53C042426F876008C768D775A
:1006F20090000AC003C002120A19E5828583F0D075
:1007020002D0032407FCE435F0FD90002675F0408A
:10071200C005C004C003C002120187900014120178
:100722001DD002D003D004D00502029830900302FB
:10073200029890002675F040C005C004C003C002B4
:1007420012124085823E85833FD002D003D004D06E
:1007520005C294D295D296D2973090030207FDE556
:100762003E2426F8762BE53EFF042426F876007414
:1007720004B51206E4B51302800280568C768D779A
:100782008A828B83C005C004121274AE82AF83D0FA
:1007920004D005EE2510F510EF3511F511EC4D7072
:1007A200527582C01200629012B075F0801200B0D1
:1007B200C294D295D296D2972092FDE4F510F5110B
:1007C200FCFDC005C00412016FD004D005752600DF
:1007D20080218C768D778A828B83C005C004120AB1
:1007E20019AE82AF83D004D005EE2510F510EF3597
:1007F20011F5117A017B008A128B13D294C295D221
:1008020096D2973090030208A9E53E2426F8762D69
:10081200E53EFE042426F876007404B51206E4B51B
:100822001302800280568C768D778A828B83C00574
:10083200C004121274AE82AF83D004D005EE25102C
:10084200F510EF3511F511EC4D70527582C01200A2
:10085200629012B075F0801200B0C294D295D29616
:10086200D2972092FDE4F510F511FCFDC005C004FD
:1008720012016FD004D00575260080218C768D7709
:100882008A828B83C005C004120A19AE82AF83D05C
:1008920004D005EE2510F510EF3511F5117AFF7B26
:1008A200FF751202751300D294D295C296D2973078
:1008B2009003020949E53E2426F8762AE53EFE0425
:1008C2002426F876007404B51206E4B513028002F9
:1008D20080588C768D778A828B83C005C004121271
:1008E20074AA82AB83D004D005EC4D70547582C0DB
:1008F2001200629012B075F0801200B0C294D295CC
:10090200D296D2972092FDE4F510F511FCFD7A0102
:100912007B00C005C004C003C00212016FD002D028
:1009220003D004D00575260080178C768D778A82D5
:100932008B83C005C004120A19AA82AB83D004D0EB
:1009420005751203751300D294D295D296C29730D0
:1009520090030209D7E53E2426F8762FE53EFE04F1
:100962002426F876007404B51206E4B51302800258
:10097200804E8C768D778A828B83C005C0041212DA
:1009820074AA82AB83D004D005EC4D70427582C04C
:100992001200629012B075F0801200B0C294D2952B
:1009A200D296D2972092FDE4F510F5117A017B00E0
:1009B200C003C00212016FD002D003752600800F5F
:1009C2008C768D778A828B83120A19AA82AB837501
:1009D20012047513007C007D0090002675F040C063
:1009E20005C004C003C00212018790001412011D49
:0C09F200D002D003D004D00502029822ED
:0B12B000496E76616C696400256400E3
:06003500E478FFF6D8FD9F
:100013007900E94400601B7A009012C6780175A04C
:1000230000E493F2A308B8000205A0D9F4DAF2754C
:02003300A0FF2C
:1009FE0020F71130F6138883A88220F509F6A88314
:100A0E007583002280FEF280F5F022E5828576F075
:100A1E00A4C582C0F08577F0A4D0F025F0C58385FB
:080A2E0076F0A42583F5832274
:10003B007800E84400600A790175A000E4F309D860
:10004B00FC7800E84400600C7900900001E4F0A318
:04005B00D8FCD9FAFA
:100A36007A10E4FBFCE58225E0F582E58333F58355
:100A4600EB33FBEC33FCEB9576F5F0EC9577400653
:100A5600FCABF0438201DADD22C047858147C082C4
:100A6600058105810581E54724FBF8A9470909E6C3
:100A7600F708E609F708E609F7A84708088682088E
:100A860086830886F0121258FAA3121258FBA31294
:100A96001258FF74012AFCE43BFD8F06A84708089C
:100AA60086820886830886F0EC1209FEA3ED1209F9
:100AB600FEA3EE1209FE8A828B838FF0A84708E612
:100AC6001209FE854781D047228582448583458564
:100AD600F046755544755600755740854058854112
:100AE6005985425A85435B900A5F120BF2AE82AF7C
:100AF60083AB44AC45AD468B828C838DF0E4120902
:100B0600FE8E828F8322C047E581F54724F8FF8F4A
:100B16005BE54724FBFF8F55755600755740E54743
:100B260024F8F8865808865908865A900A5F120BE8
:100B3600F2AE82AF83E54724FBF8860308860408F5
:100B460086058B828C838DF0E41209FE8E828F835C
:100B5600D04722AF82C04BC04CC04D120B668007F7
:100B6600C049C04A8F82221581158115810553E43B
:100B7600B55302055422AF8274302FFF24C6500BA2
:100B860074072FFFE54860034307208F82020B5945
:100B9600E582FFC4540FF582C007120B7CD00774A0
:100BA6000F5FF582020B7C858276AB4EAC4FAD5063
:100BB600AE51AA527578208A07EF2FF577EE2354A7
:100BC600014577FAEB2BFBEC33FCED33FDEE33FE00
:100BD600C3EA95764008EAC39576FA430301D578C9
:100BE600D68B4E8C4F8D508E518A522285824985E6
:100BF600834A85554B85564C85574DE4F553F55438
:100C0600AD58AE59AF5A8D828E838FF0121258FCB2
:100C160074012DF558E43EF5598F5AECFF70030226
:100C26001239BF25028003021231E4F55CF55DF549
:100C36005EF55FF560F561F562F563F565F572F5EC
:100C4600737566FF7567FF85586C85596D855A6E95
:100C5600856C82856D83856EF0121258F56FA385BB
:100C6600826C85836D856C58856D59856E5A7425A1
:100C7600B56F08856F82120B59808574D0256F5029
:100C860068E56F24C6406274FFB56636B56733857E
:100C9600727685737790000A120A198582708583A9
:100CA60071AA6F7E00EA2570FAEE3571FEEA24D04D
:100CB600F572EE34FFF573E57245737093755D0159
:100CC600808E85667685677790000A120A19AE824D
:100CD600AB83AA6F7D00EA2EFEED3BFBEE24D0F53A
:100CE60066EB34FFF567020C56742EB56F1574FF6C
:100CF600B56605B567028003020C56E4F566F5672E
:100D0600020C56749F256F500EE56F2485400853DC
:100D16006FDF75480180037548007420B56F0302C4
:100D26000DBC742BB56F03020DB6742DB56F028022
:100D3600797442B56F03020DC27443B56F03020D99
:100D4600CE7444B56F03020F527446B56F03020F9B
:100D5600697448B56F03020C567449B56F03020FE8
:100D660052744AB56F03020C56744CB56F0280522A
:100D7600744FB56F03020F5A7450B56F03020EE736
:100D86007453B56F0280627454B56F03020C5674C7
:100D960055B56F03020F5F7458B56F03020F647485
:100DA6005AB56F03020C56020F6E755C01020C56A3
:100DB600755E01020C56755F01020C5675610102E3
:100DC6000C56756201020C56E561600AE55B14F982
:100DD600895B8706800BE55B24FEFB8B5B8B0187BB
:100DE600068E82120B59020F7CE55B24FDFE8E5B9C
:100DF6008E01870209870309870619198A4E8B4FC8
:100E06008E508A828B838EF012124085826C858387
:100E16006D74FFB56609B56706856C66856D67E511
:100E26005C7037C3E56C9572E56D9573502CE57271
:100E3600C3956CF570E573956DF571AA70AE711575
:100E46007074FFB570021571EA4E60087582201243
:100E56000B5980E7857072857173AB66AE67854EF8
:100E660082854F838550F0121258FA8A6A6034C31D
:100E7600E49B74808EF063F08095F050261BBBFFD8
:100E8600011E856A82C006C003120B59D003D00624
:100E9600AA4EAC4FAD500ABA00010C8A4E8C4F8D4B
:100EA6005080BBE55C7003020F7CC3E56C9572E570
:100EB6006D95734003020F7CE572C3956CF570E582
:100EC60073956DF571AA70AE71157074FFB57002E9
:100ED6001571EA4E7003020F76758220120B598047
:100EE600E4E55B24FDFE8E5B8E018702098703091C
:100EF600870619198A4E8B4F8E50AE50BE80004021
:100F0600047B438014BE600040047B50800BBE40CF
:100F16000040047B4980027B588B82C003120B5928
:100F260075823A120B59758230120B5975827812F6
:100F36000B59D003BB4902800BBB50028006854F7C
:100F460082120B96854E82120B96802A7560017569
:100F5600650A8022756508801D75650A80187565A5
:100F6600108013756301800E856F82120B598006FF
:100F7600857072857173E5636060E55B24FCFE8EA7
:100F86005B8E01877209877309877409877519193A
:100F96001985724E85734F857450857551754EBB94
:100FA600754F12755080854E72854F7385507474D7
:100FB600012572FAE43573FBAE748A4E8B4F8E5060
:100FC6008572828573838574F0121258FEFB700356
:100FD600020C068B82120B5980CCE5657003020C5D
:100FE60006E561602BE55B14F9895B87068E027B5B
:100FF600007D007E008A4E8B4F8D508E51E56070CD
:1010060064AA4EFBFDFE8A4E8B4F8D508E51805545
:10101600E5626021E55B24FCFE8E5B8E018702099A
:1010260087030987050987061919198A4E8B4F8D7B
:10103600508E518030E55B24FEFE8E5B8E01870369
:1010460009870619EEFA3395E0FDFE8B4E8A4F8D21
:10105600508E51E560700EAA4EAB4FFDFE8A4E8B48
:101066004F8D508E51E5606023E55130E71BC3E498
:10107600954EFBE4954FFCE49550FDE49551FE8BAF
:101086004E8C4F8D508E51800375600075640179CA
:101096007E7D007E00755200856582C006C005C053
:1010A60001120BADD001D005D006E5647014E552EF
:1010B600C454F0FCE552C4540F4204E7FB4CF71944
:1010C6008002A7520DBD00010EE564B40100E433B1
:1010D600F564E54E454F4550455170B9896B8D68AD
:1010E6008E69E57245737005757201F573E55D707D
:1010F6002DE55C7029AA72AB73AC680C7E00C3EC5C
:101106009AEE9B5015758220C003C002120B59D06F
:1011160002D0031ABAFF011B80DF8A728B73E56067
:10112600601175822D120B59157274FFB572021576
:1011360073802EE56845696028E55E601175822B2F
:10114600120B59157274FFB5720215738013E55FA1
:10115600600F758220120B59157274FFB572021555
:1011660073E55C7033AD72AE738D038E041DBDFFE7
:10117600011EC3E5689BE5699C503EE55D60067B04
:10118600307C0080047B207C008B82C006C0051268
:101196000B59D005D00680D1C3E5689572E56995EF
:1011A60073500FE572C39568F572E5739569F5732B
:1011B600800BE4F572F57380048D728E73A96BADA6
:1011C60068AE698D028E041DBDFF011EEA4C6030BB
:1011D600E564B40100E433F564700A09E7C4540F0A
:1011E600FC8C5280078704740F5CF552855282C0CE
:1011F60006C005C001120B7CD001D005D00680C305
:10120600E55C7003020C06AD72AE738D038E041D91
:10121600BDFF011EEB4C7003020C06758220C00652
:10122600C005120B59D005D00680E08F82120B59EB
:0A123600020C0685538285548322C2
:0B12BB003C4E4F20464C4F41543E007B
:10124000AA82AB831212586003A380F8C3E5829A86
:08125000F582E5839BF5832282
:0D00060075817E1212ACE5826003020003DA
:1012580020F71430F6148883A88220F507E6A883BF
:1012680075830022E280F7E49322E022C2D5E58369
:1012780030E70DD2D5E4C39582F582E49583F583F2
:10128800E57730E70DB2D5E4C39576F576E4957742
:10129800F577120A3630D50BE4C39582F582E495CA
:0812A80083F583227582002208
:00000001FF
